:03000000020006F5
:03005F0002000399
:0300030002006296
:1000620075A0007E007F008E058DF005F074018082
:100072000225E0D5F0FBF5A0C007C0061200C2D0F1
:1000820006D0070EBE00010F8E048F05C3EC940844
:10009200ED940040D27E067F008E058DF005F0744F
:1000A20001800225E0D5F0FBF5A0C007C0061200D2
:1000B200C2D006D0071EBEFF011FEE4F70DB80A329
:1000C2007E007F007CFF7D001CBCFF011DEC4D709B
:1000D200F70EBE00010FC3EE94FFEF6480948040E0
:0200E200E32217
:06003500E478FFF6D8FD9F
:100013007900E94400601B7A009000E8780175A03C
:1000230000E493F2A308B8000205A0D9F4DAF2754C
:02003300A0FF2C
:10003B007800E84400600A790175A000E4F309D860
:10004B00FC7800E84400600C7900900001E4F0A318
:04005B00D8FCD9FAFA
:0D0006007581071200E4E58260030200032B
:0400E40075820022FF
:00000001FF
