:03000000020006F5
:03005F0002000399
:0300030002006296
:1000620075A0007E007F008E058DF005F074018082
:100072000225E0D5F0FBFC7407C39DF5F005F07492
:1000820001800225E0D5F0FB4CF5A0C007C00612A6
:1000920000ACD006D0070EBE00010F8E048F05C340
:1000A200EC9404ED940040BF80B97E007F007C3F59
:1000B2007D001CBCFF011DEC4D70F70EBE00010F50
:0C00C200C3EE94FFEF6480948040E322C2
:06003500E478FFF6D8FD9F
:100013007900E94400601B7A009000D2780175A052
:1000230000E493F2A308B8000205A0D9F4DAF2754C
:02003300A0FF2C
:10003B007800E84400600A790175A000E4F309D860
:10004B00FC7800E84400600C7900900001E4F0A318
:04005B00D8FCD9FAFA
:0D0006007581071200CEE582600302000341
:0400CE007582002215
:00000001FF
